{"abi":[{"type":"function","name":"excludeArtifacts","inputs":[],"outputs":[{"name":"excludedArtifacts_","type":"string[]","internalType":"string[]"}],"stateMutability":"view"},{"type":"function","name":"excludeContracts","inputs":[],"outputs":[{"name":"excludedContracts_","type":"address[]","internalType":"address[]"}],"stateMutability":"view"},{"type":"function","name":"excludeSenders","inputs":[],"outputs":[{"name":"excludedSenders_","type":"address[]","internalType":"address[]"}],"stateMutability":"view"},{"type":"function","name":"targetArtifactSelectors","inputs":[],"outputs":[{"name":"targetedArtifactSelectors_","type":"tuple[]","internalType":"struct StdInvariant.FuzzSelector[]","components":[{"name":"addr","type":"address","internalType":"address"},{"name":"selectors","type":"bytes4[]","internalType":"bytes4[]"}]}],"stateMutability":"view"},{"type":"function","name":"targetArtifacts","inputs":[],"outputs":[{"name":"targetedArtifacts_","type":"string[]","internalType":"string[]"}],"stateMutability":"view"},{"type":"function","name":"targetContracts","inputs":[],"outputs":[{"name":"targetedContracts_","type":"address[]","internalType":"address[]"}],"stateMutability":"view"},{"type":"function","name":"targetSelectors","inputs":[],"outputs":[{"name":"targetedSelectors_","type":"tuple[]","internalType":"struct StdInvariant.FuzzSelector[]","components":[{"name":"addr","type":"address","internalType":"address"},{"name":"selectors","type":"bytes4[]","internalType":"bytes4[]"}]}],"stateMutability":"view"},{"type":"function","name":"targetSenders","inputs":[],"outputs":[{"name":"targetedSenders_","type":"address[]","internalType":"address[]"}],"stateMutability":"view"}],"bytecode":{"object":"0x60808060405234601557610b20908161001a8239f35b5f80fdfe6080806040526004361015610012575f80fd5b5f3560e01c9081631ed7831c1461089f575080633e5e3c23146108225780633f7286f4146107a557806366d9a9a0146105f557806385226c81146104cd578063916a17c61461023f578063b5508aa9146101035763e20c9f7114610074575f80fd5b346100ff575f3660031901126100ff576040518060205f549182815201905f80527f290decd9548b62a8d60345a988386fc84ba6bc95484008f6362f93160ef3e563905f5b8181106100e0576100dc856100d081870382610ab0565b60405191829182610918565b0390f35b82546001600160a01b03168452602090930192600192830192016100b9565b5f80fd5b346100ff575f3660031901126100ff5760045461011f81610ad2565b61012c6040519182610ab0565b818152602081019160045f527f8a35acfbc15ff81a39ae7d344fd709f28e8600b4aa8c65c6b64bfe7fe36bd19b925f905b82821061017257604051806100dc8682610a09565b6040515f86548060011c90600181168015610235575b602083108114610221578285529081156101fe57506001146101c7575b50600192826101b985946020940382610ab0565b81520195019101909361015d565b5f888152602081209092505b8183106101e8575050810160200160016101a5565b60018160209254838688010152019201916101d3565b60ff191660208581019190915291151560051b84019091019150600190506101a5565b634e487b7160e01b5f52602260045260245ffd5b91607f1691610188565b346100ff575f3660031901126100ff5760075461025b81610ad2565b6102686040519182610ab0565b818152602081019160075f527fa66cc928b5edb82af9bd49922954155ab7b0942694bea4ce44661d9a8736c688925f905b8282106102ae57604051806100dc868261095a565b6040516102ba81610a80565b85546001600160a01b031681526040516001870180548083525f91825260208083209084019291905b81600784011061042e5784600197946002979460209794610346945491818110610412575b8181106103f6575b8181106103da575b8181106103be575b8181106103a2575b818110610386575b81811061036c575b10610358575b500382610ab0565b83820152815201950191019093610299565b6001600160e01b031916815286018d61033e565b828a1b6001600160e01b0319168452928901928b01610338565b604083901b6001600160e01b0319168452928901928b01610330565b606083901b6001600160e01b0319168452928901928b01610328565b608083901b6001600160e01b0319168452928901928b01610320565b60a083901b6001600160e01b0319168452928901928b01610318565b60c083901b6001600160e01b0319168452928901928b01610310565b60e083901b6001600160e01b0319168452928901928b01610308565b926001610100600892865463ffffffff60e01b8160e01b16825263ffffffff60e01b8160c01b16602083015263ffffffff60e01b8160a01b16604083015263ffffffff60e01b8160801b16606083015263ffffffff60e01b8160601b16608083015263ffffffff60e01b8160401b1660a083015263ffffffff60e01b8160201b1660c083015263ffffffff60e01b1660e08201520194019201916102e3565b346100ff575f3660031901126100ff576005546104e981610ad2565b6104f66040519182610ab0565b818152602081019160055f527f036b6384b5eca791c62761152d0c79bb0604c104a5fb6f4eb0703f3154bb3db0925f905b82821061053c57604051806100dc8682610a09565b6040515f86548060011c906001811680156105eb575b602083108114610221578285529081156105c85750600114610591575b506001928261058385946020940382610ab0565b815201950191019093610527565b5f888152602081209092505b8183106105b25750508101602001600161056f565b600181602092548386880101520192019161059d565b60ff191660208581019190915291151560051b840190910191506001905061056f565b91607f1691610552565b346100ff575f3660031901126100ff5760065461061181610ad2565b61061e6040519182610ab0565b818152602081019160065f527ff652222313e28459528d920b65115c16c04f3efc82aaedc97be59f3f377c0d3f925f905b82821061066457604051806100dc868261095a565b60405161067081610a80565b85546001600160a01b031681526040516001870180548083525f91825260208083209084019291905b81600784011061070657846001979460029794602097946106f4945491818110610412578181106103f6578181106103da578181106103be578181106103a2578181106103865781811061036c571061035857500382610ab0565b8382015281520195019101909361064f565b926001610100600892865463ffffffff60e01b8160e01b16825263ffffffff60e01b8160c01b16602083015263ffffffff60e01b8160a01b16604083015263ffffffff60e01b8160801b16606083015263ffffffff60e01b8160601b16608083015263ffffffff60e01b8160401b1660a083015263ffffffff60e01b8160201b1660c083015263ffffffff60e01b1660e0820152019401920191610699565b346100ff575f3660031901126100ff5760405180602060025491828152019060025f527f405787fa12a823e0f2b7631cc41b3ba8828b3321ca811111fa75cd3aa3bb5ace905f5b818110610803576100dc856100d081870382610ab0565b82546001600160a01b03168452602090930192600192830192016107ec565b346100ff575f3660031901126100ff5760405180602060035491828152019060035f527fc2575a0e9e593c00f959f8c92f12db2869c3395a3b0502d05e2516446f71f85b905f5b818110610880576100dc856100d081870382610ab0565b82546001600160a01b0316845260209093019260019283019201610869565b346100ff575f3660031901126100ff57600154808252602082019060015f527fb10e2d527612073b26eecdfd717e6a320cf44b4afac2b0732d9fcbe2b7fa0cf6905f5b8181106108f9576100dc856100d081870382610ab0565b82546001600160a01b03168452602090930192600192830192016108e2565b60206040818301928281528451809452019201905f5b81811061093b5750505090565b82516001600160a01b031684526020938401939092019160010161092e565b602081016020825282518091526040820191602060408360051b8301019401925f915b83831061098c57505050505090565b9091929394603f1982820301835285516020606081604085019360018060a01b0381511686520151936040838201528451809452019201905f905b8082106109e6575050506020806001929701930193019193929061097d565b82516001600160e01b0319168452602093840193909201916001909101906109c7565b602081016020825282518091526040820191602060408360051b8301019401925f915b838310610a3b57505050505090565b909192939460208080600193603f19868203018752818a518051918291828552018484015e5f828201840152601f01601f191601019701959491909101920190610a2c565b6040810190811067ffffffffffffffff821117610a9c57604052565b634e487b7160e01b5f52604160045260245ffd5b90601f8019910116810190811067ffffffffffffffff821117610a9c57604052565b67ffffffffffffffff8111610a9c5760051b6020019056fea26469706673582212208aafb51677d5ccedee8a72f7edad2df8faf53d8a4c8a68c43857ecfda73b4d6d64736f6c63430008210033","linkReferences":{}},"methodIdentifiers":{"excludeArtifacts()":"b5508aa9","excludeContracts()":"e20c9f71","excludeSenders()":"1ed7831c","targetArtifactSelectors()":"66d9a9a0","targetArtifacts()":"85226c81","targetContracts()":"3f7286f4","targetSelectors()":"916a17c6","targetSenders()":"3e5e3c23"},"id":13}