{"abi":[{"type":"constructor","inputs":[{"name":"_bot","type":"address","internalType":"address"},{"name":"_owner","type":"address","internalType":"address"},{"name":"_bgt","type":"address","internalType":"address"}],"stateMutability":"nonpayable"},{"type":"receive","stateMutability":"payable"},{"type":"function","name":"BGT","inputs":[],"outputs":[{"name":"","type":"address","internalType":"address"}],"stateMutability":"view"},{"type":"function","name":"MAX_FEE_BPS","inputs":[],"outputs":[{"name":"","type":"uint16","internalType":"uint16"}],"stateMutability":"view"},{"type":"function","name":"MIN_FEE_BERA","inputs":[],"outputs":[{"name":"","type":"uint256","internalType":"uint256"}],"stateMutability":"view"},{"type":"function","name":"bot","inputs":[],"outputs":[{"name":"","type":"address","internalType":"address"}],"stateMutability":"view"},{"type":"function","name":"claimCount","inputs":[{"name":"","type":"address","internalType":"address"}],"outputs":[{"name":"","type":"uint256","internalType":"uint256"}],"stateMutability":"view"},{"type":"function","name":"contractBERABalance","inputs":[],"outputs":[{"name":"","type":"uint256","internalType":"uint256"}],"stateMutability":"view"},{"type":"function","name":"executeClaim","inputs":[{"name":"user","type":"address","internalType":"address"},{"name":"vault","type":"address","internalType":"address"},{"name":"rewardUsd","type":"uint256","internalType":"uint256"}],"outputs":[],"stateMutability":"nonpayable"},{"type":"function","name":"getFeeBps","inputs":[{"name":"rewardUsd","type":"uint256","internalType":"uint256"}],"outputs":[{"name":"","type":"uint16","internalType":"uint16"}],"stateMutability":"pure"},{"type":"function","name":"optIn","inputs":[],"outputs":[],"stateMutability":"nonpayable"},{"type":"function","name":"optOut","inputs":[],"outputs":[],"stateMutability":"nonpayable"},{"type":"function","name":"optedIn","inputs":[{"name":"","type":"address","internalType":"address"}],"outputs":[{"name":"","type":"bool","internalType":"bool"}],"stateMutability":"view"},{"type":"function","name":"owner","inputs":[],"outputs":[{"name":"","type":"address","internalType":"address"}],"stateMutability":"view"},{"type":"function","name":"pause","inputs":[],"outputs":[],"stateMutability":"nonpayable"},{"type":"function","name":"paused","inputs":[],"outputs":[{"name":"","type":"bool","internalType":"bool"}],"stateMutability":"view"},{"type":"function","name":"recoverBERA","inputs":[],"outputs":[],"stateMutability":"nonpayable"},{"type":"function","name":"recoverToken","inputs":[{"name":"token","type":"address","internalType":"address"},{"name":"amount","type":"uint256","internalType":"uint256"}],"outputs":[],"stateMutability":"nonpayable"},{"type":"function","name":"renounceOwnership","inputs":[],"outputs":[],"stateMutability":"nonpayable"},{"type":"function","name":"setBot","inputs":[{"name":"_newBot","type":"address","internalType":"address"}],"outputs":[],"stateMutability":"nonpayable"},{"type":"function","name":"totalBeraReceived","inputs":[{"name":"","type":"address","internalType":"address"}],"outputs":[{"name":"","type":"uint256","internalType":"uint256"}],"stateMutability":"view"},{"type":"function","name":"transferOwnership","inputs":[{"name":"newOwner","type":"address","internalType":"address"}],"outputs":[],"stateMutability":"nonpayable"},{"type":"function","name":"unpause","inputs":[],"outputs":[],"stateMutability":"nonpayable"},{"type":"event","name":"BotUpdated","inputs":[{"name":"oldBot","type":"address","indexed":true,"internalType":"address"},{"name":"newBot","type":"address","indexed":true,"internalType":"address"}],"anonymous":false},{"type":"event","name":"ClaimExecuted","inputs":[{"name":"user","type":"address","indexed":true,"internalType":"address"},{"name":"vault","type":"address","indexed":true,"internalType":"address"},{"name":"bgtClaimed","type":"uint256","indexed":false,"internalType":"uint256"},{"name":"beraToUser","type":"uint256","indexed":false,"internalType":"uint256"},{"name":"beraFee","type":"uint256","indexed":false,"internalType":"uint256"},{"name":"feeBps","type":"uint16","indexed":false,"internalType":"uint16"}],"anonymous":false},{"type":"event","name":"ContractPaused","inputs":[{"name":"caller","type":"address","indexed":true,"internalType":"address"}],"anonymous":false},{"type":"event","name":"ContractUnpaused","inputs":[{"name":"caller","type":"address","indexed":true,"internalType":"address"}],"anonymous":false},{"type":"event","name":"IncentiveTokenSent","inputs":[{"name":"user","type":"address","indexed":true,"internalType":"address"},{"name":"token","type":"address","indexed":true,"internalType":"address"},{"name":"toUser","type":"uint256","indexed":false,"internalType":"uint256"},{"name":"toOwner","type":"uint256","indexed":false,"internalType":"uint256"}],"anonymous":false},{"type":"event","name":"OwnershipTransferred","inputs":[{"name":"previousOwner","type":"address","indexed":true,"internalType":"address"},{"name":"newOwner","type":"address","indexed":true,"internalType":"address"}],"anonymous":false},{"type":"event","name":"UserOptedIn","inputs":[{"name":"user","type":"address","indexed":true,"internalType":"address"},{"name":"timestamp","type":"uint256","indexed":false,"internalType":"uint256"}],"anonymous":false},{"type":"event","name":"UserOptedOut","inputs":[{"name":"user","type":"address","indexed":true,"internalType":"address"}],"anonymous":false},{"type":"error","name":"FeeTooHigh","inputs":[]},{"type":"error","name":"IsPaused","inputs":[]},{"type":"error","name":"NotBot","inputs":[]},{"type":"error","name":"NotOptedIn","inputs":[]},{"type":"error","name":"NothingClaimed","inputs":[]},{"type":"error","name":"TransferFailed","inputs":[]},{"type":"error","name":"ZeroAddress","inputs":[]}],"bytecode":{"object":"0x60a0346100e657601f61128138819003918201601f19168301916001600160401b038311848410176100ea578084926060946040528339810103126100e657610047816100fe565b906100606040610059602084016100fe565b92016100fe565b9160015f5561006e33610112565b6001600160a01b03169182156100d7576001600160a01b038216156100d7576001600160a01b038116156100d7576100b89260018060a01b03196002541617600255608052610112565b604051611126908161015b823960805181818161033d01526107380152f35b63d92e233d60e01b5f5260045ffd5b5f80fd5b634e487b7160e01b5f52604160045260245ffd5b51906001600160a01b03821682036100e657565b600180546001600160a01b039283166001600160a01b0319821681179092559091167f8be0079c531659141344cd1fd0a4f28419497f9722a3daafe3b4186f6b6457e05f80a356fe608080604052600436101561001c575b50361561001a575f80fd5b005b5f905f3560e01c908163037ed3e21461067c575080630ebd4c7f1461065157806310814c37146106285780633bbdacd51461060c5780633f4ba83a146105be5780634824b8fd1461057f5780635b48684e146105285780635c975abb1461050257806369c12cb7146104c95780636b5caec414610446578063715018a6146103e95780638456cb59146103955780638da5cb5b1461036c578063905d907514610327578063916afc84146103065780639fcf1f36146102cd578063b29a81401461028c578063d4eec5a61461023f578063d55be8c614610222578063f2fde38b146101595763fb24ecbf0361000f5734610156578060031936011261015657610123610fe4565b8080808060018060a01b036001541647905af161013e610e21565b50156101475780f35b6312171d8360e31b8152600490fd5b80fd5b503461015657602036600319011261015657610173610da1565b61017b610fe4565b6001600160a01b031680156101ce57600180546001600160a01b0319811683179091556001600160a01b03167f8be0079c531659141344cd1fd0a4f28419497f9722a3daafe3b4186f6b6457e08380a380f35b60405162461bcd60e51b815260206004820152602660248201527f4f776e61626c653a206e6577206f776e657220697320746865207a65726f206160448201526564647265737360d01b6064820152608490fd5b503461015657806003193601126101565760206040516105dc8152f35b503461015657806003193601126101565733808252600360205260408220805460ff191690557f6b141580ad644f2ec698ce989b30dda9c62208f8739591665fe03b3cc00d7f738280a280f35b5034610156576040366003190112610156576102ca6102a9610da1565b6102b1610fe4565b600154602435916001600160a01b039182169116610eb9565b80f35b5034610156576020366003190112610156576020906040906001600160a01b036102f5610da1565b168152600583522054604051908152f35b50346101565780600319360112610156576020604051655af3107a40008152f35b50346101565780600319360112610156576040517f00000000000000000000000000000000000000000000000000000000000000006001600160a01b03168152602090f35b50346101565780600319360112610156576001546040516001600160a01b039091168152602090f35b50346101565780600319360112610156576103ae610fe4565b6002805460ff60a01b1916600160a01b179055337f81990fd9a5c552b8e3677917d8a03c07678f0d2cb68f88b634aca2022e9bd19f8280a280f35b5034610156578060031936011261015657610402610fe4565b600180546001600160a01b0319811690915581906001600160a01b03167f8be0079c531659141344cd1fd0a4f28419497f9722a3daafe3b4186f6b6457e08280a380f35b503461015657602036600319011261015657610460610da1565b610468610fe4565b6001600160a01b031680156104ba57600254816001600160a01b0382167fc9e7d530d582d3d5b6157650000f66e1c1e15182323ec64d987298660b77251e8580a36001600160a01b0319161760025580f35b63d92e233d60e01b8252600482fd5b5034610156576020366003190112610156576020906040906001600160a01b036104f1610da1565b168152600483522054604051908152f35b5034610156578060031936011261015657602060ff60025460a01c166040519015158152f35b5034610156578060031936011261015657338152600360205260408120600160ff198254161790556040514281527f37bf2088fef583d0c516f619927d93c307680a421331fd127c9cde7749290d9660203392a280f35b50346101565760203660031901126101565760209060ff906040906001600160a01b036105aa610da1565b168152600384522054166040519015158152f35b50346101565780600319360112610156576105d7610fe4565b6002805460ff60a01b19169055337f5b65b0c1363b3003db9bcc5e1fd8805a6d6bf5bf6dc9d3431ee4494cd7d117668280a280f35b5034610156578060031936011261015657602047604051908152f35b50346101565780600319360112610156576002546040516001600160a01b039091168152602090f35b5034610156576020366003190112610156576020610670600435610e88565b61ffff60405191168152f35b90503461098257606036600319011261098257610697610da1565b906024356001600160a01b03811691908290036109825760025f5414610d5f575060025f819055546001600160a01b0381163303610d505760a01c60ff16610d41576001600160a01b0382165f8181526003602052604090205460ff1615610d32578015610d23578115610d235747610cf4575b61ffff610719604435610e88565b166105dc8111610ce5576040516370a0823160e01b81523060048201527f00000000000000000000000000000000000000000000000000000000000000006001600160a01b031693479291602081602481895afa908115610c45575f91610cb3575b50604051636b09169560e01b8152600481018690523060248201526020816044815f875af18015610c4557610c84575b506040516370a0823160e01b8152306004820152906020826024818a5afa8015610c45575f90610c50575b6107e09250610ded565b8015159384610bf3575b6107f49047610ded565b93841580918192610beb575b50610bdc579088929115610a83575b5060405162e26f7960e81b81529350839060049082905afa8692816109b2575b5061083d575b856001815580f35b859394955b82518110156109a157856001600160a01b0361085e8386610e60565b5116146109995760249060206001600160a01b0361087c8387610e60565b5116604051938480926370a0823160e01b82523060048301525afa801561098e578690610958575b60019250801561095257857f5270291f2f9f2eb1089a95a67c4d7e8956abd30b76ad64a2c34ef9a6d008c94460408b6109086108ee6127106108e68b89610e0e565b048097610ded565b80928b6109018a8c8060a01b0392610e60565b5116610eb9565b61092d85888060a01b0361091c898d610e60565b5116898060a01b038a541690610eb9565b868060a01b0361093d878b610e60565b51169482519182526020820152a35b01610842565b5061094c565b506020823d8211610986575b8161097160209383610db7565b8101031261098257600191516108a4565b5f80fd5b3d9150610964565b6040513d88823e3d90fd5b60019061094c565b505050509150505f80808080610835565b9092503d8088833e6109c48183610db7565b810190602081830312610a7b5780519067ffffffffffffffff8211610a7f570181601f82011215610a7b5780519167ffffffffffffffff8311610a67578260051b9160405193610a176020850186610db7565b8452602080850193820101918211610a6357602001915b818310610a3f57505050915f61082f565b82516001600160a01b0381168103610a5f57815260209283019201610a2e565b8a80fd5b8980fd5b634e487b7160e01b89526041600452602489fd5b8780fd5b8880fd5b91509192612710610a948583610e0e565b0490610aa08282610ded565b9082151580610bcd575b610b98575b5088808080848c5af1610ac0610e21565b50898080808660018060a01b03600154165af190610adc610e21565b5015908115610b8f575b50610b805785895260046020526040892080545f198114610b6c576001019055858952600560205260408920805490828201809211610b6c5760808b95879560049998958b957fdc97654b1fcb537979e379fca71cbe8b8334c54daf036f33b4a6de79dd1b16d7955560405192835260208301526040820152876060820152a35f61080f565b634e487b7160e01b8b52601160045260248bfd5b6312171d8360e31b8952600489fd5b9050155f610ae6565b655af3107a40009250655af3107a3fff19810191508111610bb9575f610aaf565b634e487b7160e01b89526011600452602489fd5b50655af3107a40008310610aaa565b631466bdb760e31b8952600489fd5b90505f610800565b863b15610982576040516301e9a69560e41b8152306004820152602481018390525f81604481838c5af18015610c4557610c2e575b506107ea565b610c3b9199505f90610db7565b5f976107f4610c28565b6040513d5f823e3d90fd5b506020823d602011610c7c575b81610c6a60209383610db7565b81010312610982576107e091516107d6565b3d9150610c5d565b6020813d602011610cab575b81610c9d60209383610db7565b8101031261098257516107ab565b3d9150610c90565b90506020813d602011610cdd575b81610cce60209383610db7565b8101031261098257515f61077b565b3d9150610cc1565b63cd4e616760e01b5f5260045ffd5b5f80808060018060a01b036001541647905af1610d0f610e21565b5061070b576312171d8360e31b5f5260045ffd5b63d92e233d60e01b5f5260045ffd5b6334b09b3960e11b5f5260045ffd5b631309a56360e01b5f5260045ffd5b63a03b20af60e01b5f5260045ffd5b62461bcd60e51b815260206004820152601f60248201527f5265656e7472616e637947756172643a207265656e7472616e742063616c6c006044820152606490fd5b600435906001600160a01b038216820361098257565b90601f8019910116810190811067ffffffffffffffff821117610dd957604052565b634e487b7160e01b5f52604160045260245ffd5b91908203918211610dfa57565b634e487b7160e01b5f52601160045260245ffd5b81810292918115918404141715610dfa57565b3d15610e5b573d9067ffffffffffffffff8211610dd95760405191610e50601f8201601f191660200184610db7565b82523d5f602084013e565b606090565b8051821015610e745760209160051b010190565b634e487b7160e01b5f52603260045260245ffd5b678ac7230489e800008110610eb25768056bc75e2d6310000011610eac5761035290565b6103e890565b506104e290565b60405163a9059cbb60e01b602082019081526001600160a01b03939093166024820152604480820194909452928352610f539291905f908190610efd606486610db7565b60018060a01b03169260405194610f15604087610db7565b602086527f5361666545524332303a206c6f772d6c6576656c2063616c6c206661696c65646020870152519082855af1610f4d610e21565b9161103c565b8051908115918215610fc1575b505015610f6957565b60405162461bcd60e51b815260206004820152602a60248201527f5361666545524332303a204552433230206f7065726174696f6e20646964206e6044820152691bdd081cdd58d8d9595960b21b6064820152608490fd5b819250906020918101031261098257602001518015158103610982575f80610f60565b6001546001600160a01b03163303610ff857565b606460405162461bcd60e51b815260206004820152602060248201527f4f776e61626c653a2063616c6c6572206973206e6f7420746865206f776e65726044820152fd5b9192901561109e5750815115611050575090565b3b156110595790565b60405162461bcd60e51b815260206004820152601d60248201527f416464726573733a2063616c6c20746f206e6f6e2d636f6e74726163740000006044820152606490fd5b8251909150156110b15750805190602001fd5b604460209160405192839162461bcd60e51b83528160048401528051918291826024860152018484015e5f828201840152601f01601f19168101030190fdfea2646970667358221220fa66cc63fa747c48dbaab8eacb396df91f80498a1a424c97bf668e1bf30b4dde64736f6c63430008210033","linkReferences":{}},"methodIdentifiers":{"BGT()":"905d9075","MAX_FEE_BPS()":"d55be8c6","MIN_FEE_BERA()":"916afc84","bot()":"10814c37","claimCount(address)":"69c12cb7","contractBERABalance()":"3bbdacd5","executeClaim(address,address,uint256)":"037ed3e2","getFeeBps(uint256)":"0ebd4c7f","optIn()":"5b48684e","optOut()":"d4eec5a6","optedIn(address)":"4824b8fd","owner()":"8da5cb5b","pause()":"8456cb59","paused()":"5c975abb","recoverBERA()":"fb24ecbf","recoverToken(address,uint256)":"b29a8140","renounceOwnership()":"715018a6","setBot(address)":"6b5caec4","totalBeraReceived(address)":"9fcf1f36","transferOwnership(address)":"f2fde38b","unpause()":"3f4ba83a"},"id":24}